{
  "contractName": "DNFT",
  "abi": [
    {
      "inputs": [],
      "stateMutability": "nonpayable",
      "type": "constructor"
    },
    {
      "anonymous": false,
      "inputs": [
        {
          "indexed": true,
          "internalType": "address",
          "name": "owner",
          "type": "address"
        },
        {
          "indexed": true,
          "internalType": "address",
          "name": "approved",
          "type": "address"
        },
        {
          "indexed": true,
          "internalType": "uint256",
          "name": "tokenId",
          "type": "uint256"
        }
      ],
      "name": "Approval",
      "type": "event"
    },
    {
      "anonymous": false,
      "inputs": [
        {
          "indexed": true,
          "internalType": "address",
          "name": "owner",
          "type": "address"
        },
        {
          "indexed": true,
          "internalType": "address",
          "name": "operator",
          "type": "address"
        },
        {
          "indexed": false,
          "internalType": "bool",
          "name": "approved",
          "type": "bool"
        }
      ],
      "name": "ApprovalForAll",
      "type": "event"
    },
    {
      "anonymous": false,
      "inputs": [
        {
          "indexed": true,
          "internalType": "address",
          "name": "from",
          "type": "address"
        },
        {
          "indexed": true,
          "internalType": "address",
          "name": "to",
          "type": "address"
        },
        {
          "indexed": true,
          "internalType": "uint256",
          "name": "tokenId",
          "type": "uint256"
        }
      ],
      "name": "Transfer",
      "type": "event"
    },
    {
      "inputs": [
        {
          "internalType": "address",
          "name": "to",
          "type": "address"
        },
        {
          "internalType": "uint256",
          "name": "tokenId",
          "type": "uint256"
        }
      ],
      "name": "approve",
      "outputs": [],
      "stateMutability": "nonpayable",
      "type": "function"
    },
    {
      "inputs": [
        {
          "internalType": "address",
          "name": "owner",
          "type": "address"
        }
      ],
      "name": "balanceOf",
      "outputs": [
        {
          "internalType": "uint256",
          "name": "",
          "type": "uint256"
        }
      ],
      "stateMutability": "view",
      "type": "function"
    },
    {
      "inputs": [
        {
          "internalType": "uint256",
          "name": "tokenId",
          "type": "uint256"
        }
      ],
      "name": "getApproved",
      "outputs": [
        {
          "internalType": "address",
          "name": "",
          "type": "address"
        }
      ],
      "stateMutability": "view",
      "type": "function"
    },
    {
      "inputs": [
        {
          "internalType": "address",
          "name": "owner",
          "type": "address"
        },
        {
          "internalType": "address",
          "name": "operator",
          "type": "address"
        }
      ],
      "name": "isApprovedForAll",
      "outputs": [
        {
          "internalType": "bool",
          "name": "",
          "type": "bool"
        }
      ],
      "stateMutability": "view",
      "type": "function"
    },
    {
      "inputs": [],
      "name": "name",
      "outputs": [
        {
          "internalType": "string",
          "name": "",
          "type": "string"
        }
      ],
      "stateMutability": "view",
      "type": "function"
    },
    {
      "inputs": [
        {
          "internalType": "uint256",
          "name": "tokenId",
          "type": "uint256"
        }
      ],
      "name": "ownerOf",
      "outputs": [
        {
          "internalType": "address",
          "name": "",
          "type": "address"
        }
      ],
      "stateMutability": "view",
      "type": "function"
    },
    {
      "inputs": [
        {
          "internalType": "address",
          "name": "from",
          "type": "address"
        },
        {
          "internalType": "address",
          "name": "to",
          "type": "address"
        },
        {
          "internalType": "uint256",
          "name": "tokenId",
          "type": "uint256"
        }
      ],
      "name": "safeTransferFrom",
      "outputs": [],
      "stateMutability": "nonpayable",
      "type": "function"
    },
    {
      "inputs": [
        {
          "internalType": "address",
          "name": "from",
          "type": "address"
        },
        {
          "internalType": "address",
          "name": "to",
          "type": "address"
        },
        {
          "internalType": "uint256",
          "name": "tokenId",
          "type": "uint256"
        },
        {
          "internalType": "bytes",
          "name": "data",
          "type": "bytes"
        }
      ],
      "name": "safeTransferFrom",
      "outputs": [],
      "stateMutability": "nonpayable",
      "type": "function"
    },
    {
      "inputs": [
        {
          "internalType": "address",
          "name": "operator",
          "type": "address"
        },
        {
          "internalType": "bool",
          "name": "approved",
          "type": "bool"
        }
      ],
      "name": "setApprovalForAll",
      "outputs": [],
      "stateMutability": "nonpayable",
      "type": "function"
    },
    {
      "inputs": [
        {
          "internalType": "bytes4",
          "name": "interfaceId",
          "type": "bytes4"
        }
      ],
      "name": "supportsInterface",
      "outputs": [
        {
          "internalType": "bool",
          "name": "",
          "type": "bool"
        }
      ],
      "stateMutability": "view",
      "type": "function"
    },
    {
      "inputs": [],
      "name": "symbol",
      "outputs": [
        {
          "internalType": "string",
          "name": "",
          "type": "string"
        }
      ],
      "stateMutability": "view",
      "type": "function"
    },
    {
      "inputs": [
        {
          "internalType": "address",
          "name": "from",
          "type": "address"
        },
        {
          "internalType": "address",
          "name": "to",
          "type": "address"
        },
        {
          "internalType": "uint256",
          "name": "tokenId",
          "type": "uint256"
        }
      ],
      "name": "transferFrom",
      "outputs": [],
      "stateMutability": "nonpayable",
      "type": "function"
    },
    {
      "inputs": [
        {
          "internalType": "address",
          "name": "to",
          "type": "address"
        },
        {
          "internalType": "string",
          "name": "_tokenUri",
          "type": "string"
        }
      ],
      "name": "safeMint",
      "outputs": [],
      "stateMutability": "nonpayable",
      "type": "function"
    },
    {
      "inputs": [
        {
          "internalType": "uint256",
          "name": "_tokenId",
          "type": "uint256"
        },
        {
          "internalType": "string",
          "name": "_newUri",
          "type": "string"
        }
      ],
      "name": "updateNFT",
      "outputs": [],
      "stateMutability": "nonpayable",
      "type": "function"
    },
    {
      "inputs": [
        {
          "internalType": "uint256",
          "name": "tokenId",
          "type": "uint256"
        }
      ],
      "name": "tokenURI",
      "outputs": [
        {
          "internalType": "string",
          "name": "",
          "type": "string"
        }
      ],
      "stateMutability": "view",
      "type": "function"
    }
  ],
  "bytecode": "0x60806040523480156200001157600080fd5b506040518060400160405280600581526020017f444e4654730000000000000000000000000000000000000000000000000000008152506040518060400160405280600481526020017f644e465400000000000000000000000000000000000000000000000000000000815250816000908051906020019062000096929190620000b8565b508060019080519060200190620000af929190620000b8565b505050620001cd565b828054620000c69062000197565b90600052602060002090601f016020900481019282620000ea576000855562000136565b82601f106200010557805160ff191683800117855562000136565b8280016001018555821562000136579182015b828111156200013557825182559160200191906001019062000118565b5b50905062000145919062000149565b5090565b5b80821115620001645760008160009055506001016200014a565b5090565b7f4e487b7100000000000000000000000000000000000000000000000000000000600052602260045260246000fd5b60006002820490506001821680620001b057607f821691505b60208210811415620001c757620001c662000168565b5b50919050565b61299a80620001dd6000396000f3fe608060405234801561001057600080fd5b50600436106100f55760003560e01c806370a0823111610097578063c318d8f811610066578063c318d8f814610282578063c87b56dd1461029e578063d204c45e146102ce578063e985e9c5146102ea576100f5565b806370a08231146101fc57806395d89b411461022c578063a22cb4651461024a578063b88d4fde14610266576100f5565b8063095ea7b3116100d3578063095ea7b31461017857806323b872dd1461019457806342842e0e146101b05780636352211e146101cc576100f5565b806301ffc9a7146100fa57806306fdde031461012a578063081812fc14610148575b600080fd5b610114600480360381019061010f919061190e565b61031a565b6040516101219190611956565b60405180910390f35b6101326103fc565b60405161013f9190611a0a565b60405180910390f35b610162600480360381019061015d9190611a62565b61048e565b60405161016f9190611ad0565b60405180910390f35b610192600480360381019061018d9190611b17565b6104d4565b005b6101ae60048036038101906101a99190611b57565b6105ec565b005b6101ca60048036038101906101c59190611b57565b61064c565b005b6101e660048036038101906101e19190611a62565b61066c565b6040516101f39190611ad0565b60405180910390f35b61021660048036038101906102119190611baa565b61071e565b6040516102239190611be6565b60405180910390f35b6102346107d6565b6040516102419190611a0a565b60405180910390f35b610264600480360381019061025f9190611c2d565b610868565b005b610280600480360381019061027b9190611da2565b61087e565b005b61029c60048036038101906102979190611ec6565b6108e0565b005b6102b860048036038101906102b39190611a62565b6108ee565b6040516102c59190611a0a565b60405180910390f35b6102e860048036038101906102e39190611f22565b610900565b005b61030460048036038101906102ff9190611f7e565b610931565b6040516103119190611956565b60405180910390f35b60007f80ac58cd000000000000000000000000000000000000000000000000000000007bffffffffffffffffffffffffffffffffffffffffffffffffffffffff1916827bffffffffffffffffffffffffffffffffffffffffffffffffffffffff191614806103e557507f5b5e139f000000000000000000000000000000000000000000000000000000007bffffffffffffffffffffffffffffffffffffffffffffffffffffffff1916827bffffffffffffffffffffffffffffffffffffffffffffffffffffffff1916145b806103f557506103f4826109c5565b5b9050919050565b60606000805461040b90611fed565b80601f016020809104026020016040519081016040528092919081815260200182805461043790611fed565b80156104845780601f1061045957610100808354040283529160200191610484565b820191906000526020600020905b81548152906001019060200180831161046757829003601f168201915b5050505050905090565b600061049982610a2f565b6004600083815260200190815260200160002060009054906101000a900473ffffffffffffffffffffffffffffffffffffffff169050919050565b60006104df8261066c565b90508073ffffffffffffffffffffffffffffffffffffffff168373ffffffffffffffffffffffffffffffffffffffff161415610550576040517f08c379a000000000000000000000000000000000000000000000000000000000815260040161054790612091565b60405180910390fd5b8073ffffffffffffffffffffffffffffffffffffffff1661056f610a7a565b73ffffffffffffffffffffffffffffffffffffffff16148061059e575061059d81610598610a7a565b610931565b5b6105dd576040517f08c379a00000000000000000000000000000000000000000000000000000000081526004016105d490612123565b60405180910390fd5b6105e78383610a82565b505050565b6105fd6105f7610a7a565b82610b3b565b61063c576040517f08c379a0000000000000000000000000000000000000000000000000000000008152600401610633906121b5565b60405180910390fd5b610647838383610bd0565b505050565b6106678383836040518060200160405280600081525061087e565b505050565b6000806002600084815260200190815260200160002060009054906101000a900473ffffffffffffffffffffffffffffffffffffffff169050600073ffffffffffffffffffffffffffffffffffffffff168173ffffffffffffffffffffffffffffffffffffffff161415610715576040517f08c379a000000000000000000000000000000000000000000000000000000000815260040161070c90612221565b60405180910390fd5b80915050919050565b60008073ffffffffffffffffffffffffffffffffffffffff168273ffffffffffffffffffffffffffffffffffffffff16141561078f576040517f08c379a0000000000000000000000000000000000000000000000000000000008152600401610786906122b3565b60405180910390fd5b600360008373ffffffffffffffffffffffffffffffffffffffff1673ffffffffffffffffffffffffffffffffffffffff168152602001908152602001600020549050919050565b6060600180546107e590611fed565b80601f016020809104026020016040519081016040528092919081815260200182805461081190611fed565b801561085e5780601f106108335761010080835404028352916020019161085e565b820191906000526020600020905b81548152906001019060200180831161084157829003601f168201915b5050505050905090565b61087a610873610a7a565b8383610e37565b5050565b61088f610889610a7a565b83610b3b565b6108ce576040517f08c379a00000000000000000000000000000000000000000000000000000000081526004016108c5906121b5565b60405180910390fd5b6108da84848484610fa4565b50505050565b6108ea8282611000565b5050565b60606108f982611074565b9050919050565b600061090c6007611187565b90506109186007611195565b61092283826111ab565b61092c8183611000565b505050565b6000600560008473ffffffffffffffffffffffffffffffffffffffff1673ffffffffffffffffffffffffffffffffffffffff16815260200190815260200160002060008373ffffffffffffffffffffffffffffffffffffffff1673ffffffffffffffffffffffffffffffffffffffff16815260200190815260200160002060009054906101000a900460ff16905092915050565b60007f01ffc9a7000000000000000000000000000000000000000000000000000000007bffffffffffffffffffffffffffffffffffffffffffffffffffffffff1916827bffffffffffffffffffffffffffffffffffffffffffffffffffffffff1916149050919050565b610a38816111c9565b610a77576040517f08c379a0000000000000000000000000000000000000000000000000000000008152600401610a6e90612221565b60405180910390fd5b50565b600033905090565b816004600083815260200190815260200160002060006101000a81548173ffffffffffffffffffffffffffffffffffffffff021916908373ffffffffffffffffffffffffffffffffffffffff160217905550808273ffffffffffffffffffffffffffffffffffffffff16610af58361066c565b73ffffffffffffffffffffffffffffffffffffffff167f8c5be1e5ebec7d5bd14f71427d1e84f3dd0314c0f7b2291e5b200ac8c7c3b92560405160405180910390a45050565b600080610b478361066c565b90508073ffffffffffffffffffffffffffffffffffffffff168473ffffffffffffffffffffffffffffffffffffffff161480610b895750610b888185610931565b5b80610bc757508373ffffffffffffffffffffffffffffffffffffffff16610baf8461048e565b73ffffffffffffffffffffffffffffffffffffffff16145b91505092915050565b8273ffffffffffffffffffffffffffffffffffffffff16610bf08261066c565b73ffffffffffffffffffffffffffffffffffffffff1614610c46576040517f08c379a0000000000000000000000000000000000000000000000000000000008152600401610c3d90612345565b60405180910390fd5b600073ffffffffffffffffffffffffffffffffffffffff168273ffffffffffffffffffffffffffffffffffffffff161415610cb6576040517f08c379a0000000000000000000000000000000000000000000000000000000008152600401610cad906123d7565b60405180910390fd5b610cc1838383611235565b610ccc600082610a82565b6001600360008573ffffffffffffffffffffffffffffffffffffffff1673ffffffffffffffffffffffffffffffffffffffff1681526020019081526020016000206000828254610d1c9190612426565b925050819055506001600360008473ffffffffffffffffffffffffffffffffffffffff1673ffffffffffffffffffffffffffffffffffffffff1681526020019081526020016000206000828254610d73919061245a565b92505081905550816002600083815260200190815260200160002060006101000a81548173ffffffffffffffffffffffffffffffffffffffff021916908373ffffffffffffffffffffffffffffffffffffffff160217905550808273ffffffffffffffffffffffffffffffffffffffff168473ffffffffffffffffffffffffffffffffffffffff167fddf252ad1be2c89b69c2b068fc378daa952ba7f163c4a11628f55a4df523b3ef60405160405180910390a4610e3283838361123a565b505050565b8173ffffffffffffffffffffffffffffffffffffffff168373ffffffffffffffffffffffffffffffffffffffff161415610ea6576040517f08c379a0000000000000000000000000000000000000000000000000000000008152600401610e9d906124fc565b60405180910390fd5b80600560008573ffffffffffffffffffffffffffffffffffffffff1673ffffffffffffffffffffffffffffffffffffffff16815260200190815260200160002060008473ffffffffffffffffffffffffffffffffffffffff1673ffffffffffffffffffffffffffffffffffffffff16815260200190815260200160002060006101000a81548160ff0219169083151502179055508173ffffffffffffffffffffffffffffffffffffffff168373ffffffffffffffffffffffffffffffffffffffff167f17307eab39ab6107e8899845ad3d59bd9653f200f220920489ca2b5937696c3183604051610f979190611956565b60405180910390a3505050565b610faf848484610bd0565b610fbb8484848461123f565b610ffa576040517f08c379a0000000000000000000000000000000000000000000000000000000008152600401610ff19061258e565b60405180910390fd5b50505050565b611009826111c9565b611048576040517f08c379a000000000000000000000000000000000000000000000000000000000815260040161103f90612620565b60405180910390fd5b8060066000848152602001908152602001600020908051906020019061106f9291906117ff565b505050565b606061107f82610a2f565b600060066000848152602001908152602001600020805461109f90611fed565b80601f01602080910402602001604051908101604052809291908181526020018280546110cb90611fed565b80156111185780601f106110ed57610100808354040283529160200191611118565b820191906000526020600020905b8154815290600101906020018083116110fb57829003601f168201915b5050505050905060006111296113c7565b905060008151141561113f578192505050611182565b60008251111561117457808260405160200161115c92919061267c565b60405160208183030381529060405292505050611182565b61117d846113de565b925050505b919050565b600081600001549050919050565b6001816000016000828254019250508190555050565b6111c5828260405180602001604052806000815250611446565b5050565b60008073ffffffffffffffffffffffffffffffffffffffff166002600084815260200190815260200160002060009054906101000a900473ffffffffffffffffffffffffffffffffffffffff1673ffffffffffffffffffffffffffffffffffffffff1614159050919050565b505050565b505050565b60006112608473ffffffffffffffffffffffffffffffffffffffff166114a1565b156113ba578373ffffffffffffffffffffffffffffffffffffffff1663150b7a02611289610a7a565b8786866040518563ffffffff1660e01b81526004016112ab94939291906126f5565b6020604051808303816000875af19250505080156112e757506040513d601f19601f820116820180604052508101906112e49190612756565b60015b61136a573d8060008114611317576040519150601f19603f3d011682016040523d82523d6000602084013e61131c565b606091505b50600081511415611362576040517f08c379a00000000000000000000000000000000000000000000000000000000081526004016113599061258e565b60405180910390fd5b805181602001fd5b63150b7a0260e01b7bffffffffffffffffffffffffffffffffffffffffffffffffffffffff1916817bffffffffffffffffffffffffffffffffffffffffffffffffffffffff1916149150506113bf565b600190505b949350505050565b606060405180602001604052806000815250905090565b60606113e982610a2f565b60006113f36113c7565b90506000815111611413576040518060200160405280600081525061143e565b8061141d846114c4565b60405160200161142e92919061267c565b6040516020818303038152906040525b915050919050565b6114508383611625565b61145d600084848461123f565b61149c576040517f08c379a00000000000000000000000000000000000000000000000000000000081526004016114939061258e565b60405180910390fd5b505050565b6000808273ffffffffffffffffffffffffffffffffffffffff163b119050919050565b6060600082141561150c576040518060400160405280600181526020017f30000000000000000000000000000000000000000000000000000000000000008152509050611620565b600082905060005b6000821461153e57808061152790612783565b915050600a8261153791906127fb565b9150611514565b60008167ffffffffffffffff81111561155a57611559611c77565b5b6040519080825280601f01601f19166020018201604052801561158c5781602001600182028036833780820191505090505b5090505b60008514611619576001826115a59190612426565b9150600a856115b4919061282c565b60306115c0919061245a565b60f81b8183815181106115d6576115d561285d565b5b60200101907effffffffffffffffffffffffffffffffffffffffffffffffffffffffffffff1916908160001a905350600a8561161291906127fb565b9450611590565b8093505050505b919050565b600073ffffffffffffffffffffffffffffffffffffffff168273ffffffffffffffffffffffffffffffffffffffff161415611695576040517f08c379a000000000000000000000000000000000000000000000000000000000815260040161168c906128d8565b60405180910390fd5b61169e816111c9565b156116de576040517f08c379a00000000000000000000000000000000000000000000000000000000081526004016116d590612944565b60405180910390fd5b6116ea60008383611235565b6001600360008473ffffffffffffffffffffffffffffffffffffffff1673ffffffffffffffffffffffffffffffffffffffff168152602001908152602001600020600082825461173a919061245a565b92505081905550816002600083815260200190815260200160002060006101000a81548173ffffffffffffffffffffffffffffffffffffffff021916908373ffffffffffffffffffffffffffffffffffffffff160217905550808273ffffffffffffffffffffffffffffffffffffffff16600073ffffffffffffffffffffffffffffffffffffffff167fddf252ad1be2c89b69c2b068fc378daa952ba7f163c4a11628f55a4df523b3ef60405160405180910390a46117fb6000838361123a565b5050565b82805461180b90611fed565b90600052602060002090601f01602090048101928261182d5760008555611874565b82601f1061184657805160ff1916838001178555611874565b82800160010185558215611874579182015b82811115611873578251825591602001919060010190611858565b5b5090506118819190611885565b5090565b5b8082111561189e576000816000905550600101611886565b5090565b6000604051905090565b600080fd5b600080fd5b60007fffffffff0000000000000000000000000000000000000000000000000000000082169050919050565b6118eb816118b6565b81146118f657600080fd5b50565b600081359050611908816118e2565b92915050565b600060208284031215611924576119236118ac565b5b6000611932848285016118f9565b91505092915050565b60008115159050919050565b6119508161193b565b82525050565b600060208201905061196b6000830184611947565b92915050565b600081519050919050565b600082825260208201905092915050565b60005b838110156119ab578082015181840152602081019050611990565b838111156119ba576000848401525b50505050565b6000601f19601f8301169050919050565b60006119dc82611971565b6119e6818561197c565b93506119f681856020860161198d565b6119ff816119c0565b840191505092915050565b60006020820190508181036000830152611a2481846119d1565b905092915050565b6000819050919050565b611a3f81611a2c565b8114611a4a57600080fd5b50565b600081359050611a5c81611a36565b92915050565b600060208284031215611a7857611a776118ac565b5b6000611a8684828501611a4d565b91505092915050565b600073ffffffffffffffffffffffffffffffffffffffff82169050919050565b6000611aba82611a8f565b9050919050565b611aca81611aaf565b82525050565b6000602082019050611ae56000830184611ac1565b92915050565b611af481611aaf565b8114611aff57600080fd5b50565b600081359050611b1181611aeb565b92915050565b60008060408385031215611b2e57611b2d6118ac565b5b6000611b3c85828601611b02565b9250506020611b4d85828601611a4d565b9150509250929050565b600080600060608486031215611b7057611b6f6118ac565b5b6000611b7e86828701611b02565b9350506020611b8f86828701611b02565b9250506040611ba086828701611a4d565b9150509250925092565b600060208284031215611bc057611bbf6118ac565b5b6000611bce84828501611b02565b91505092915050565b611be081611a2c565b82525050565b6000602082019050611bfb6000830184611bd7565b92915050565b611c0a8161193b565b8114611c1557600080fd5b50565b600081359050611c2781611c01565b92915050565b60008060408385031215611c4457611c436118ac565b5b6000611c5285828601611b02565b9250506020611c6385828601611c18565b9150509250929050565b600080fd5b600080fd5b7f4e487b7100000000000000000000000000000000000000000000000000000000600052604160045260246000fd5b611caf826119c0565b810181811067ffffffffffffffff82111715611cce57611ccd611c77565b5b80604052505050565b6000611ce16118a2565b9050611ced8282611ca6565b919050565b600067ffffffffffffffff821115611d0d57611d0c611c77565b5b611d16826119c0565b9050602081019050919050565b82818337600083830152505050565b6000611d45611d4084611cf2565b611cd7565b905082815260208101848484011115611d6157611d60611c72565b5b611d6c848285611d23565b509392505050565b600082601f830112611d8957611d88611c6d565b5b8135611d99848260208601611d32565b91505092915050565b60008060008060808587031215611dbc57611dbb6118ac565b5b6000611dca87828801611b02565b9450506020611ddb87828801611b02565b9350506040611dec87828801611a4d565b925050606085013567ffffffffffffffff811115611e0d57611e0c6118b1565b5b611e1987828801611d74565b91505092959194509250565b600067ffffffffffffffff821115611e4057611e3f611c77565b5b611e49826119c0565b9050602081019050919050565b6000611e69611e6484611e25565b611cd7565b905082815260208101848484011115611e8557611e84611c72565b5b611e90848285611d23565b509392505050565b600082601f830112611ead57611eac611c6d565b5b8135611ebd848260208601611e56565b91505092915050565b60008060408385031215611edd57611edc6118ac565b5b6000611eeb85828601611a4d565b925050602083013567ffffffffffffffff811115611f0c57611f0b6118b1565b5b611f1885828601611e98565b9150509250929050565b60008060408385031215611f3957611f386118ac565b5b6000611f4785828601611b02565b925050602083013567ffffffffffffffff811115611f6857611f676118b1565b5b611f7485828601611e98565b9150509250929050565b60008060408385031215611f9557611f946118ac565b5b6000611fa385828601611b02565b9250506020611fb485828601611b02565b9150509250929050565b7f4e487b7100000000000000000000000000000000000000000000000000000000600052602260045260246000fd5b6000600282049050600182168061200557607f821691505b6020821081141561201957612018611fbe565b5b50919050565b7f4552433732313a20617070726f76616c20746f2063757272656e74206f776e6560008201527f7200000000000000000000000000000000000000000000000000000000000000602082015250565b600061207b60218361197c565b91506120868261201f565b604082019050919050565b600060208201905081810360008301526120aa8161206e565b9050919050565b7f4552433732313a20617070726f76652063616c6c6572206973206e6f7420746f60008201527f6b656e206f776e6572206e6f7220617070726f76656420666f7220616c6c0000602082015250565b600061210d603e8361197c565b9150612118826120b1565b604082019050919050565b6000602082019050818103600083015261213c81612100565b9050919050565b7f4552433732313a2063616c6c6572206973206e6f7420746f6b656e206f776e6560008201527f72206e6f7220617070726f766564000000000000000000000000000000000000602082015250565b600061219f602e8361197c565b91506121aa82612143565b604082019050919050565b600060208201905081810360008301526121ce81612192565b9050919050565b7f4552433732313a20696e76616c696420746f6b656e2049440000000000000000600082015250565b600061220b60188361197c565b9150612216826121d5565b602082019050919050565b6000602082019050818103600083015261223a816121fe565b9050919050565b7f4552433732313a2061646472657373207a65726f206973206e6f74206120766160008201527f6c6964206f776e65720000000000000000000000000000000000000000000000602082015250565b600061229d60298361197c565b91506122a882612241565b604082019050919050565b600060208201905081810360008301526122cc81612290565b9050919050565b7f4552433732313a207472616e736665722066726f6d20696e636f72726563742060008201527f6f776e6572000000000000000000000000000000000000000000000000000000602082015250565b600061232f60258361197c565b915061233a826122d3565b604082019050919050565b6000602082019050818103600083015261235e81612322565b9050919050565b7f4552433732313a207472616e7366657220746f20746865207a65726f2061646460008201527f7265737300000000000000000000000000000000000000000000000000000000602082015250565b60006123c160248361197c565b91506123cc82612365565b604082019050919050565b600060208201905081810360008301526123f0816123b4565b9050919050565b7f4e487b7100000000000000000000000000000000000000000000000000000000600052601160045260246000fd5b600061243182611a2c565b915061243c83611a2c565b92508282101561244f5761244e6123f7565b5b828203905092915050565b600061246582611a2c565b915061247083611a2c565b9250827fffffffffffffffffffffffffffffffffffffffffffffffffffffffffffffffff038211156124a5576124a46123f7565b5b828201905092915050565b7f4552433732313a20617070726f766520746f2063616c6c657200000000000000600082015250565b60006124e660198361197c565b91506124f1826124b0565b602082019050919050565b60006020820190508181036000830152612515816124d9565b9050919050565b7f4552433732313a207472616e7366657220746f206e6f6e20455243373231526560008201527f63656976657220696d706c656d656e7465720000000000000000000000000000602082015250565b600061257860328361197c565b91506125838261251c565b604082019050919050565b600060208201905081810360008301526125a78161256b565b9050919050565b7f45524337323155524953746f726167653a2055524920736574206f66206e6f6e60008201527f6578697374656e7420746f6b656e000000000000000000000000000000000000602082015250565b600061260a602e8361197c565b9150612615826125ae565b604082019050919050565b60006020820190508181036000830152612639816125fd565b9050919050565b600081905092915050565b600061265682611971565b6126608185612640565b935061267081856020860161198d565b80840191505092915050565b6000612688828561264b565b9150612694828461264b565b91508190509392505050565b600081519050919050565b600082825260208201905092915050565b60006126c7826126a0565b6126d181856126ab565b93506126e181856020860161198d565b6126ea816119c0565b840191505092915050565b600060808201905061270a6000830187611ac1565b6127176020830186611ac1565b6127246040830185611bd7565b818103606083015261273681846126bc565b905095945050505050565b600081519050612750816118e2565b92915050565b60006020828403121561276c5761276b6118ac565b5b600061277a84828501612741565b91505092915050565b600061278e82611a2c565b91507fffffffffffffffffffffffffffffffffffffffffffffffffffffffffffffffff8214156127c1576127c06123f7565b5b600182019050919050565b7f4e487b7100000000000000000000000000000000000000000000000000000000600052601260045260246000fd5b600061280682611a2c565b915061281183611a2c565b925082612821576128206127cc565b5b828204905092915050565b600061283782611a2c565b915061284283611a2c565b925082612852576128516127cc565b5b828206905092915050565b7f4e487b7100000000000000000000000000000000000000000000000000000000600052603260045260246000fd5b7f4552433732313a206d696e7420746f20746865207a65726f2061646472657373600082015250565b60006128c260208361197c565b91506128cd8261288c565b602082019050919050565b600060208201905081810360008301526128f1816128b5565b9050919050565b7f4552433732313a20746f6b656e20616c7265616479206d696e74656400000000600082015250565b600061292e601c8361197c565b9150612939826128f8565b602082019050919050565b6000602082019050818103600083015261295d81612921565b905091905056fea264697066735822122072dcd12b96a0765e3f01e2fd4780f0e2446a3198af25eb41f16d28cf849dbc1264736f6c634300080c0033",
  "immutableReferences": {},
  "source": "// SPDX-License-Identifier: MIT\npragma solidity >=0.4.22 <0.9.0;\n\nimport \"@openzeppelin/contracts/token/ERC721/extensions/ERC721URIStorage.sol\";\nimport \"@openzeppelin/contracts/utils/Counters.sol\";\n\ncontract DNFT is ERC721, ERC721URIStorage {\n\n  using Counters for Counters.Counter;\n\n  Counters.Counter private _tokenIdCounter;\n\n  constructor() ERC721(\"DNFTs\",\"dNFT\") {\n  }\n\n  function safeMint(address to, string memory _tokenUri) public {\n    uint256 tokenId = _tokenIdCounter.current();\n    _tokenIdCounter.increment();\n    _safeMint(to,tokenId);\n    _setTokenURI(tokenId, _tokenUri);\n  }\n\n  function updateNFT(uint256 _tokenId, string memory _newUri) public {\n    _setTokenURI(_tokenId,_newUri);\n  }\n\n  function _burn(uint256 tokenId)\n    internal\n    override(ERC721, ERC721URIStorage)\n  {\n      super._burn(tokenId);\n  }\n\n  function tokenURI(uint256 tokenId)\n      public\n      view\n      override(ERC721, ERC721URIStorage)\n      returns (string memory)\n  {\n      return super.tokenURI(tokenId);\n  }\n\n\n}\n",
  "sourcePath": "D:\\Blockchain\\dynamic\\nft\\contracts\\DNFT.sol",
  "compiler": {
    "name": "solc",
    "version": "0.8.12+commit.f00d7308.Emscripten.clang"
  },
  "schemaVersion": "3.4.5",
  "updatedAt": "2022-10-03T08:54:47.460Z",
  "devdoc": {
    "kind": "dev",
    "methods": {
      "approve(address,uint256)": {
        "details": "See {IERC721-approve}."
      },
      "balanceOf(address)": {
        "details": "See {IERC721-balanceOf}."
      },
      "getApproved(uint256)": {
        "details": "See {IERC721-getApproved}."
      },
      "isApprovedForAll(address,address)": {
        "details": "See {IERC721-isApprovedForAll}."
      },
      "name()": {
        "details": "See {IERC721Metadata-name}."
      },
      "ownerOf(uint256)": {
        "details": "See {IERC721-ownerOf}."
      },
      "safeTransferFrom(address,address,uint256)": {
        "details": "See {IERC721-safeTransferFrom}."
      },
      "safeTransferFrom(address,address,uint256,bytes)": {
        "details": "See {IERC721-safeTransferFrom}."
      },
      "setApprovalForAll(address,bool)": {
        "details": "See {IERC721-setApprovalForAll}."
      },
      "supportsInterface(bytes4)": {
        "details": "See {IERC165-supportsInterface}."
      },
      "symbol()": {
        "details": "See {IERC721Metadata-symbol}."
      },
      "transferFrom(address,address,uint256)": {
        "details": "See {IERC721-transferFrom}."
      }
    },
    "version": 1
  },
  "userdoc": {
    "kind": "user",
    "methods": {},
    "version": 1
  }
}